:040000000CEF00F011
:10000800FACF03F0FBCF04F0E9CF05F04AED0AF090
:1000180088EF0AF0290E3C6E000E3D6E0DD2250EBB
:100028004518D8B404D045506AEC0EF005D2000E3D
:10003800436E000E426E000E446E05D04484274A7B
:10004800282A01D00BD027C0F6FF28C0F7FF0800E8
:10005800F550300AD8B4F2D701D0F5D727C0F6FF4B
:1000680028C0F7FF0800F550C3EC0DF0D8A03DD02C
:10007800000E436E000E426E00D042C011F043C025
:1000880012F0000E146E0A0E136E9DEC0DF011C0E6
:1000980042F012C043F0D00E356EFF0E366E27C008
:1000A800F6FF28C0F7FF0800F550376E386A35505C
:1000B8003726365038223750422638504322274AAE
:1000C800282A27C0F6FF28C0F7FF0800F550C3EC20
:1000D8000DF0D8A00AD0D1D708D0BCD1448805D01B
:1000E8001ED0448E1CD0A8D11AD027C0F6FF28C035
:1000F800F7FF274A282A0800F5CF45F04550000A9F
:10010800D8B4A8D1640AD8B40AD00D0AD8B407D094
:10011800050AD8B4E3D7140AD8B4E3D78DD144BEBE
:100128002FD044A80ED03CC0D9FF3DC0DAFFDECFA7
:100138003EF0DECF3FF0DECF40F0DECF41F0040EE0
:100148000ED03CC0D9FF3DC0DAFFDECF3EF0DDCF98
:100158003FF0000E3FBEFF0E406E416E020E3C2681
:10016800000E3D2200D041AE74D0030E4412411E51
:10017800401E3F1E3E6C000E3F224022412269D0A5
:1001880044A80ED03CC0D9FF3DC0DAFFDECF3EF018
:10019800DECF3FF0DECF40F0DECF41F0040E0FD0CF
:1001A8003CC0D9FF3DC0DAFFDECF35F0DDCF36F0F9
:1001B80035C03EF036C03FF0406A416A020E3C2628
:1001C800000E3D2246D0010E456E0A0E4518D8B4E1
:1001D80049D001D047D04550040D160EF324F66ED1
:1001E800FF0EF420F76E0900F5503E5C0900F5504B
:1001F8003F580900F55040580900F5504158D8A01B
:1002080031D001D02FD0452AE0D72CD0010E456E31
:10021800080E4518D8B426D001D024D04550040D76
:100228003E0EF324F66EFF0EF420F76E0900F5502B
:100238003E5C0900F5503F580900F5504058090048
:10024800F5504158D8A00ED001D00CD0452AE0D79F
:1002580009D04450800B000AD8B4B5D7800AD8B466
:10026800D5D700D042504310D8B40AD044C035F096
:10027800030E3516D8B404D04206D8A0430600D0E1
:10028800800E45BE7F0E356E4250455C4350800A55
:100298003558D8B007D04550425E000E45BEFF0E17
:1002A800435A05D0000E436E000E426E00D044A49F
:1002B8001AD044C035F0030E3516D8B404D02D0E2C
:1002C8006AEC0EF000D042504310D8B426D0300E5D
:1002D8006AEC0EF04206D8A0430642504310D8B448
:1002E8001CD0F5D71AD042504310D8B40CD0200EE9
:1002F8006AEC0EF04206D8A0430642504310D8B428
:1003080002D0F5D700D044C035F0030E3516D8B466
:1003180004D02D0E6AEC0EF000D045503A6E3B6AC0
:100328003ABE3B067FD071D03AC035F03BC036F0BC
:10033800D89035363636D89035363636160E3524BA
:10034800F66EFF0E3620F76E0900F5CF15F009009E
:10035800F5CF16F00900F5CF17F00A00F5CF18F021
:100368003EC011F03FC012F040C013F041C014F07D
:10037800C0EC09F011C01EF012C01FF013C020F02D
:1003880014C021F00A0E226E000E236E000E246E99
:10039800000E256EC5EC0AF01E50300F456E3ED09B
:1003A8003EC011F03FC012F040C013F041C014F03D
:1003B8003AC035F03BC036F0D89035363636D8904E
:1003C800353636363E0E3524F66EFF0E3620F76E7D
:1003D8000900F5CF15F00900F5CF16F00900F5CFA3
:1003E80017F00A00F5CF18F0C0EC09F011500F0B08
:1003F800396E3950010DD60EF324F66EFF0EF42037
:10040800F76E0800F5CF45F009D04450800B000A7C
:10041800D8B48AD7800AD8B4C3D700D045506AEC7C
:100428000EF000D03A06D8A03B063A28EEE13B2869
:10043800D8B402D0EAD700D027C0F6FF28C0F7FF0B
:10044800274A282A0800F5CF45F04550D8B402D0ED
:10045800E6D500D0120003EC0DF079EC09F035EC8C
:100468000BF000D068EC0BF063506E18D8B454D081
:1004780063C06EF021EC0DF014500001E66F00012E
:10048800E651116E126A11BE1206000E146E090EA4
:10049800136E9DEC0DF011C017F012C018F0000E8D
:1004A8001A6E050E196E2EEC09F01750200F000178
:1004B800E76F890E276EFF0E286E5FC029F02A6A43
:1004C80060C02BF02C6A63C02DF02E6A61C02FF03B
:1004D800306A5CC031F0326A6DC033F0346A0EECB9
:1004E80000F05E0E276EFF0E286E0001E651296EA1
:1004F8002A6A29BE2A060001E7512B6E2C6A2BBEF8
:100508002C060EEC00F00001E751116E126A11BEC4
:100518001206C5EC07F000D04E044F10D8A4A2D79D
:10052800000E4F6E000E4E6E11EC04F047C052F0F4
:10053800F288F19C0001EA69000E0001E96F000EE3
:10054800E86F0001E9BF0AD00001E9512FE1150E5B
:100558000001E85DD8B02AD001D028D0AA0E000149
:10056800E825D96E000E0001E921DA6E5250DE1836
:10057800D8A417D0E8C0EAF0A70E276EFF0E286EA1
:1005880046C029F047C02AF048C02BF049C02CF0DB
:1005980052C02DF02E6AEAC02FF0306A0EEC00F03F
:1005A80005D00001E84BE92BCCD700D0080E00019C
:1005B800EA19D8A409D035EC0BF0E70E276EFF0E28
:1005C800286E0EEC00F000D00001EA29D8B44AD712
:1005D8008482000E3C6E3C0E3B6E000E3E6E500E4A
:1005E8003D6E000E406E140E3F6E0001EA51020D82
:1005F800800EF324D96E000EF420DA6EDECF41F0BF
:10060800DDCF42F0C4EC0BF0000E1D6E3C0E1C6EEC
:10061800000E1F6E500E1E6E000E216E140E206E00
:10062800FF0E236E22683AEC03F04D0E396E00017E
:10063800EA51040D000EF3243A6E010EF4203B6ECD
:10064800FF0E3D6E3C68000E3F6E000E3E6E010EC2
:10065800406E340E40EC07F051EC0EF0B1EC0DF0AA
:1006680090EC0EF08492FED60CEF00F020C024F03F
:1006780021C025F0241E251E244A252A010E2424E3
:100688002A6E000E25202B6E000E276E010E266E98
:1006980020C024F021C025F0D89024362536241E09
:1006A800251E244A252A24C028F025C029F0000E3A
:1006B8002D6E000E2C6E20C02EF021C02FF01E5083
:1006C8002024186E22C019F023C01AF01C5058ECD0
:1006D8000DF0205000081E24186E22C019F023C007
:1006E8001AF01C5058EC0DF01EC018F022C019F07A
:1006F80023C01AF01C50202458EC0DF01EC018F02E
:1007080022C019F023C01AF0205000081C2458EC0D
:100718000DF078D02BBE0BD02E06D8A02F06020ED7
:100728002826000E292228502A2629502B222C4A16
:100738002D2A020E2626000E272226502A2627506A
:100748002B221E502E24186E22C019F023C01AF036
:100758001C502C2458EC0DF01E502E24186E22C06C
:1007680019F023C01AF02C5000081C2458EC0DF086
:100778002E5000081E24186E22C019F023C01AF04B
:100788001C502C2458EC0DF02E5000081E24186E16
:1007980022C019F023C01AF02C5000081C2458EC71
:1007A8000DF01E502C24186E22C019F023C01AF028
:1007B8001C502E2458EC0DF01E502C24186E22C00C
:1007C80019F023C01AF02E5000081C2458EC0DF024
:1007D8002C5000081E24186E22C019F023C01AF0ED
:1007E8001C502E2458EC0DF02C5000081E24186EB6
:1007F80022C019F023C01AF02E5000081C2458EC0F
:100808000DF000D02E502C5C2D50800A246E2F50F5
:10081800800A2458D8A07ED71200F2925350D8B438
:100828009AD0CE50CFCF11F0126A11C012F0116ACF
:1008380011104A6E12504B6E000ECF6E000ECE6E27
:100848008AD0000ECF6E000ECE6E9E90900ECD6EAA
:10085800CD80000E5A6E000E466E000E476E000EDA
:10086800486E000E496E010E536E73D085D0350E5A
:100878004A5C210E4B58D8A009D01C0E4A5C250EA4
:100888004B58D8B003D0020E536E2AD08CEC0EF021
:1008980027D026D071D0A10E4A5C0F0E4B58D8A095
:1008A80009D0880E4A5C130E4B58D8B003D0030EFB
:1008B800536E4FD08CEC0EF04CD04BD05DD0910ED7
:1008C8004A5C010E4B58D8A008D0BC0E4A5C020EF8
:1008D8004B58D8B002D0040ED7D78CEC0EF000D00D
:1008E800F19C4AD0910E4A5C010E4B58D8A02ED0EC
:1008F800080E4A5C070E4B58D8B028D0D89046341A
:10090800466E4734476E4834486E4934496EE90E9E
:100918004A5C030E4B58D8A00CD0010E4624466EF4
:10092800000E4720476E000E4820486E000E4920F2
:10093800496E5A285A6E1F0E5A64B9D7000E4F6E68
:10094800010E4E6EF298000E536EB1D78CEC0EF07D
:1009580000D0F18C11D05350000AD8B472D7010AD4
:10096800D8B485D7030AD8B496D7010AD8B4A7D77C
:10097800070AD8B4B7D700D01200F2925350D8B4AF
:100988009AD0CE50CFCF01F0026A01C002F0016ABE
:1009980001104A6E02504B6E000ECF6E000ECE6EE6
:1009A8008AD0000ECF6E000ECE6E9E90900ECD6E49
:1009B800CD80000E5A6E000E466E000E476E000E79
:1009C800486E000E496E010E536E73D085D0350EF9
:1009D8004A5C210E4B58D8A009D01C0E4A5C250E43
:1009E8004B58D8B003D0020E536E2AD09CEC0EF0B0
:1009F80027D026D071D0A10E4A5C0F0E4B58D8A034
:100A080009D0880E4A5C130E4B58D8B003D0030E99
:100A1800536E4FD09CEC0EF04CD04BD05DD0910E65
:100A28004A5C010E4B58D8A008D0BC0E4A5C020E96
:100A38004B58D8B002D0040ED7D79CEC0EF000D09B
:100A4800F19C4AD0910E4A5C010E4B58D8A02ED08A
:100A5800080E4A5C070E4B58D8B028D0D8904634B8
:100A6800466E4734476E4834486E4934496EE90E3D
:100A78004A5C030E4B58D8A00CD0010E4624466E93
:100A8800000E4720476E000E4820486E000E492091
:100A9800496E5A285A6E1F0E5A64B9D7000E4F6E07
:100AA800010E4E6EF298000E536EB1D79CEC0EF00C
:100AB80000D0F18C11D05350000AD8B472D7010A73
:100AC800D8B485D7030AD8B496D7010AD8B4A7D71B
:100AD800070AD8B4B7D700D01200366E800E366039
:100AE800A6D09F0E2E6401D0A2D03450D8A403D033
:100AF800010E346E00D01F0E2F6404D07E0E2F64BA
:100B080003D000D03F0E2F6E000E386E040E3864EE
:100B180001D08DD0530E2F6015D0E00E2F24116E0A
:100B2800126AFF0E1222000E146E050E136E9DEC53
:100B38000DF038501126000E12223B0E1124F66ECD
:100B4800FD0E14D0AD0E2F24116E126AFF0E122264
:100B5800000E146E050E136E9DEC0DF03850112624
:100B6800000E12223A0E1124F66EFE0E1220F76EB7
:100B78000800F5CF35F000D0000E376E060E37644A
:100B880001D053D035A023D03404D8A40CD02E5093
:100B98003724186E30C019F031C01AF03650382496
:100BA80058EC0DF03ED037503402F3502E24236E0B
:100BB80034C024F034C025F030C026F031C027F00E
:100BC80038503402F35036243DEC0CF02AD0305023
:100BD800321804E131503318D8B423D03404D8A4DF
:100BE8000CD02E503724186E32C019F033C01AF0CA
:100BF8003650382458EC0DF014D037503402F350E6
:100C08002E24236E34C024F034C025F032C026F0E0
:100C180033C027F038503402F35036243DEC0CF042
:100C280000D0372AD8903532A9D7382A6FD7120082
:100C380027C02FF028C030F02F1E301E2F4A302A30
:100C4800010E2F24356E000E3020366E000E326EE7
:100C5800010E316E27C02FF028C030F0D8902F3603
:100C680030362F1E301E2F4A302A2FC033F030C0A6
:100C780034F0000E386E000E376E27C039F028C0E9
:100C88003AF067D036BE0BD03906D8A03A06020E25
:100C98003326000E34223350352634503622374A54
:100CA800382A020E3126000E3222315035263250B3
:100CB800362229A025D0395000082524186E39502D
:100CC80039242B242F6E2F28196E2DC01AF02EC010
:100CD8001BF02350372406EC0AF03750000825246F
:100CE800186E375037242B242F6E2F28196E2DC0DD
:100CF8001AF02EC01BF02350392406EC0AF000D05D
:100D080029A227D0395000082524186E39503924D3
:100D18002B242F6E2F28196E2DC01AF02EC01BF011
:100D280037500008232406EC0AF037500008252421
:100D3800186E375037242B242F6E2F28196E2DC08C
:100D48001AF02EC01BF039500008232406EC0AF0D4
:100D580000D03950375C3850800A2F6E3A50800ADC
:100D68002F58D8A08FD71200010E62EC0EF0000E9B
:100D7800186E960E176EEDEC0BF0110E62EC0EF07D
:100D8800010E186EF40E176EEDEC0BF0B10E62EC5E
:100D98000EF0010E5AEC0EF02C0E5AEC0EF02D0E41
:100DA8005AEC0EF0B20E62EC0EF0010E5AEC0EF098
:100DB8002C0E5AEC0EF02D0E5AEC0EF0B30E62EC1F
:100DC8000EF0010E5AEC0EF02C0E5AEC0EF02D0E11
:100DD8005AEC0EF0010E5AEC0EF02C0E5AEC0EF0F6
:100DE8002D0E5AEC0EF0B40E62EC0EF0070E5AEC13
:100DF8000EF0C00E62EC0EF0A20E5AEC0EF0020ECF
:100E08005AEC0EF0840E5AEC0EF0C10E62EC0EF0A5
:100E1800C50E5AEC0EF0C20E62EC0EF00A0E5AEC39
:100E28000EF0000E5AEC0EF0C30E62EC0EF08A0EB5
:100E38005AEC0EF02A0E5AEC0EF0C40E62EC0EF0CC
:100E48008A0E5AEC0EF0EE0E5AEC0EF0C50E62EC5D
:100E58000EF00E0E5AEC0EF0200E62EC0EF0360E6E
:100E680062EC0EF0C80E5AEC0EF03A0E62EC0EF080
:100E7800050E5AEC0EF012000001DE6FDEC0E4F041
:100E880039C0E3F03AC011F03BC012F0A6EC0CF008
:100E980011C0DFF012C0E0F0000E0001E26F000E9A
:100EA800E16F64D06F50D8B434D04050050D0001C4
:100EB800E451416E426AF3504126F450422242BE48
:100EC80028D0425004E1810E415CD8A022D0000E07
:100ED8000001E46F4050070DF3500001E325030FB4
:100EE8000001E36FA00E0001E36504D0A00E00012D
:100EF800E36F00D00001E1513A24D96E0001E251BC
:100F08003B20DA6E200EDE18D8B42CD002D02AD0BE
:100F180000D0E3C02EF00001E1513A24D96E00015F
:100F2800E2513B20DA6EDF502F6E3CC030F03DC0FE
:100F380031F03EC032F03FC033F040C034F0000121
:100F4800E45171EC05F04050060DF3500001E42522
:100F58000001E46F800E0001E46504D0800E0001FA
:100F6800E46F00D00001E14BE22B00D00001DF511B
:100F78000001E15D0001E0510001E259D8A092D7DB
:100F8800120012BE06D0125006E10A0E115CD8B04B
:100F980002D0000E75D012BE10D0125004E10A0E15
:100FA800115CD8A00AD012BE06D0125006E1140E69
:100FB800115CD8B002D0100E63D012BE10D01250FF
:100FC80004E1140E115CD8A00AD012BE06D012504B
:100FD80006E11E0E115CD8B002D0200E51D012BE10
:100FE80010D0125004E11E0E115CD8A00AD012BE17
:100FF80006D0125006E1280E115CD8B002D0300E8F
:101008003FD012BE10D0125004E1280E115CD8A0B7
:101018000AD012BE06D0125006E1320E115CD8B0CA
:1010280002D0400E2DD012BE10D0125004E1320E64
:10103800115CD8A00AD012BE06D0125006E13C0EB0
:10104800115CD8B002D0500E1BD012BE10D0125076
:1010580004E13C0E115CD8A00AD012BE06D0125092
:1010680006E1460E115CD8B002D0600E09D012BE5F
:1010780009D0125004E1460E115CD8A003D0700EBE
:10108800836E00D01200E00E62EC0EF0020E5AECF5
:101098000EF01C0E5AEC0EF0070E5AEC0EF0120E63
:1010A8005AEC0EF0370E5AEC0EF0320E5AEC0EF0E7
:1010B800290E5AEC0EF02D0E5AEC0EF0290E5AECB1
:1010C8000EF0250E5AEC0EF02B0E5AEC0EF0390EDF
:1010D8005AEC0EF0000E5AEC0EF0010E5AEC0EF01F
:1010E800030E5AEC0EF0100E5AEC0EF0E10E62EC04
:1010F8000EF0030E5AEC0EF01D0E5AEC0EF0070E11
:101108005AEC0EF0060E5AEC0EF02E0E5AEC0EF0BB
:101118002C0E5AEC0EF0290E5AEC0EF02D0E5AEC4D
:101128000EF02E0E5AEC0EF02E0E5AEC0EF0370E74
:101138005AEC0EF03F0E5AEC0EF0000E5AEC0EF080
:10114800000E5AEC0EF0020E5AEC0EF0100E5AEC8D
:101158000EF0130E62EC0EF0000E186E0A0E176EEB
:10116800EDEC0BF0290E62EC0EF0000E186E640E1A
:10117800176EEDEC0BF01200236E800E236069D021
:101188009F0E186401D065D0FF0E1D6EFF0E1E6EF7
:10119800195023C01FF0206A1F26000E20221D5060
:1011A8001F261E50202220BE0AD0205004E1800EA7
:1011B8001F5CD8A004D023500008800F196EFF0EC2
:1011C8001D6EFF0E1E6E1A5018C01FF0206A1F26D3
:1011D800000E20221D501F261E50202220BE0BD09C
:1011E800205004E1A00E1F5CD8A005D018500008BC
:1011F800A00F1A6E00D018C014F0235019241D6EC9
:101208001D04156E18501A241E6E1E04166E2350E7
:1012180016EC0CF01C50216E1BC022F082808292CA
:101228001AC018F01850D8B413D001D011D019C072
:1012380023F02350D8B40AD001D008D0215019EC9B
:101248000EF0225019EC0EF02306F3D71806EAD751
:1012580082821200000E1C6E1AAE07D0196C1A1E7C
:10126800D8B01A2A010E1C6E00D018AE07D0176C21
:10127800181ED8B0182A010E1C1A00D0000E1E6EB7
:10128800000E1D6E19501A10D8B421D0010E1B6E15
:1012980005D0D89019361A361B2A00D01ABE02D0AB
:1012A800F8D700D0D8901D361E361950175C1A5042
:1012B8001858D8A006D01950175E1A50185A1D8011
:1012C80000D0D8901A3219321B2EECD700D01C50FF
:1012D800D8B405D01D6C1E1ED8B01E2A00D01DC063
:1012E80017F01EC018F000D012002DEC0EF088EC9C
:1012F8000DF0000E256E000E246EF3EC0DF0BF0EFF
:10130800506E000E516E50C011F051C012F0C20E56
:10131800136EFF0E146E3FEC0DF0020E396E50C0C6
:101328003AF051C03BF0FF0E3D6E3C68000E3F6E38
:10133800000E3E6E010E406E020E40EC07F050C0EB
:1013480011F051C012F0F60E136EFF0E146E3FEC42
:101358000DF00A0E396E50C03AF051C03BF0FF0E46
:101368003D6E3C68000E3F6E000E3E6E010E406EF4
:10137800320E40EC07F01200000E196E000E1A6EC5
:10138800000E1B6E000E1C6E15501610171018104C
:10139800D8B42FD0010E1D6E07D0D890153616364A
:1013A800173618361D2A00D018BE02D0F6D700D03E
:1013B800D89019361A361B361C361550115C165043
:1013C80012581750135818501458D8A00AD015504E
:1013D800115E1650125A1750135A1850145A198081
:1013E80000D0D89018321732163215321D2EE0D799
:1013F80000D019C011F01AC012F01BC013F01CC0A5
:1014080014F01200226E800E22603FD09F0E1864E6
:1014180001D03BD0FF0E1C6EFF0E1D6E195018C078
:101428001EF01F6A1E26000E1F221C501E261D506D
:101438001F221FBE0BD01F5004E1A00E1E5CD8A0B7
:1014480005D018500008A00F196E00D01B50206E50
:101458001AC021F018C014F022C015F01850192431
:101468001C6E1C04166E225016EC0CF082808292C0
:1014780007D0205019EC0EF0215019EC0EF000D0D6
:1014880019061928D8A4F5D7828212000600EACFD7
:1014980006F0E1CF07F0E2CF08F0D9CF09F0DACFB4
:1014A8000AF0F3CF0BF0F4CF0CF0F6CF0DF0F7CF36
:1014B8000EF0F8CF0FF0F5CF10F09EA003D077EC28
:1014C8000EF000D0F2A203D0C1EC04F000D010C09E
:1014D800F5FF0FC0F8FF0EC0F7FF0DC0F6FF0CC0F8
:1014E800F4FF0BC0F3FF0AC0DAFF09C0D9FF08C038
:1014F800E2FF07C0E1FF06C0EAFF05C0E9FF04C03C
:10150800FBFF03C0FAFF110000EEBFF01F0EEE6AEA
:10151800E806FDE100EE46F0280EEE6AE806FDE179
:10152800340EF66E170EF76E000EF86E01EE00F030
:1015380010EE54F00900F5CFEEFFE550E150FAE166
:101548000C0EF66E190EF76E000EF86E00EE80F0B7
:1015580010EE3FF00900F5CFEEFFE550E150FAE15B
:10156800400EF66E1D0EF76E000EF86E0900F5CFF0
:101578006EF00900F5CF6FF0000EF86E00012FEF46
:1015880002F02250231024102510D8B429D0010EBF
:10159800266E07D0D8902236233624362536262ABA
:1015A80000D025BE02D0F6D700D022501E5C2350B2
:1015B8001F582450205825502158D8A009D022500F
:1015C8001E5E23501F5A2450205A2550215A00D0FD
:1015D800D8902532243223322232262EE6D700D064
:1015E8001EC01EF01FC01FF020C020F021C021F037
:1015F8001200136E000EAC6E000EAB6E13A002D07C
:10160800AC8800D013A203D0AC8CAB8C00D013A450
:1016180002D0AC8E00D013A602D0AB8802D0AB8A21
:1016280000D013B8AC849E9813AA02D0AB8600D021
:1016380013AC02D09D8A01D09D9A9E9A13AE02D017
:101648009D8801D09D9811C0AFFF1250B06EAC8A32
:10165800AB8E949C948EACB8ACBE02D0948C00D067
:101668001200680E136E000E146E200E636E100EBC
:10167800606E020E5F6E050E5D6E280E5C6E100EBB
:10168800616E210E6D6E3FEC0EF013501324E4ECE6
:101698000CF01450E4EC0CF06350E4EC0CF06050E7
:1016A800E4EC0CF05F50E4EC0CF05D50E4EC0CF072
:1016B8005C50E4EC0CF06150E4EC0CF06D50E4ECA0
:1016C8000CF036EC0EF01200680E156E000E146E5B
:1016D8003FEC0EF015501524E4EC0CF01450E4EC3B
:1016E8000CF00EEC0EF0D8801534E4EC0CF0010E82
:1016F80062EC0CF0636E010E62EC0CF0606E010E91
:1017080062EC0CF05F6E010E62EC0CF05D6E010E87
:1017180062EC0CF05C6E010E62EC0CF0616E000E77
:1017280062EC0CF06D6E36EC0EF0120043482D00A2
:101738004348300043482B00505256004E5854003E
:10174800502F5000564C2D00564C2B004551300060
:101758002330300031303000323030002330310057
:101768002330320023303300233034002330350057
:101778002330360023303700233038002330390037
:101788003F5000083D24186ED8803F34196E41C080
:101798001AF042C01BF03B5006EC0AF03BC023F0A5
:1017A8003CC024F03DC025F03EC026F03FC027F0E5
:1017B80040C028F0000E2A6E030E296E000E2C6E13
:1017C800000E2B6E41C02DF042C02EF01CEC06F02E
:1017D800120017C011F018C012F0000E146EFA0EA5
:1017E800136E9DEC0DF011C01BF012C01CF01BC055
:1017F80019F01CC01AF0191E1A1E194A1A2AFF0ECF
:1018080019241B6EFF0E1A201C6EB80EB16E1BC079
:10181800B2FF1C50B36EA192B18000D0A1A2FED736
:10182800B1901200176E2A0E62EC0EF0000E5AEC00
:101838000EF017505B245AEC0EF0000E5AEC0EF026
:1018480015505B245AEC0EF02B0E62EC0EF0000ED5
:101858005AEC0EF0145062245AEC0EF0000E5AECBA
:101868000EF0165062245AEC0EF02C0E62EC0EF0BC
:1018780012002B6E2BC02CF02D6A0ED023C018F04E
:1018880025C019F026C01AF027C01BF02C5006EC12
:101898000AF02C4A2D2A00D024502BC028F0296A9F
:1018A8002826000E292228502C5C2D50800A2A6EEA
:1018B8002950800A2A58D8A0E1D71200116E98EC56
:1018C8000EF0000E126E070E126401D00FD071ECEC
:1018D8000EF083A603D0D880133604D013501324F7
:1018E800136E00D094EC0EF0122AEDD71150D8B434
:1018F80003D048EC0EF003D082EC0EF000D0135069
:1019080000D0120000F800F800F81F001F00E007E0
:101918001FF81FF81FF8000000000000000000007A
:101928000000000000000000000000000000A262AB
:10193800E22202C2E0A8906898B030187A10385AAB
:10194800424A520011C015F012C016F003D0154AD1
:10195800162A00D015C0D9FF16C0DAFFDF50D8A468
:10196800F6D711C013F012C014F0131E141E134A38
:10197800142A15501324116E16501420126E00D01C
:1019880012002A0E62EC0EF0000E5AEC0EF0000E59
:101998005AEC0EF0000E5AEC0EF07F0E5AEC0EF0D8
:1019A8002B0E62EC0EF0000E5AEC0EF0000E5AEC04
:1019B8000EF0000E5AEC0EF09F0E5AEC0EF01200CC
:1019C800116E000E126E070E126401D011D011AE06
:1019D80003D098EC0EF003D087EC0EF000D071EC39
:1019E8000EF094EC0EF011501124116E122AEBD760
:1019F80098EC0EF071EC0EF094EC0EF0120023EC63
:101A08000EF0700ED36E0F0EC16E010E936E000EA7
:101A1800946E0C0E956E000E966EF19E70EC0DF0A5
:101A2800A00E116E860E126E010E136E000E146E4D
:101A38007DEC0EF0E4EC0DF01200480E186EAA0EC4
:101A4800166E3FEC0EF018501824E4EC0CF016500B
:101A5800E4EC0CF00EEC0EF0D8801834E4EC0CF04A
:101A6800000E62EC0CF0176E36EC0EF017C014F096
:101A7800156A00D0120011C015F012C016F005D07A
:101A8800154A162A134A142A00D013C0F6FF14C0A8
:101A9800F7FF15C0D9FF16C0DAFF0800F5CFDFFF42
:101AA800DF50D8A4EDD712001B6E800E1B6013D038
:101AB8009F0E186401D00FD018C014F01B28156EA3
:101AC8001828166E1B5016EC0CF01A505AEC0EF033
:101AD80019505AEC0EF01200F292F19CF288000EA6
:101AE800CF6E000ECE6E9E909D80F28CF28E000E10
:101AF8004F6E000E4E6E000E466E000E476E000EC4
:101B0800486E000E496E120082828290800EC76E67
:101B1800300EC66EB8EC06F0C5EC0CF047EC08F0D9
:101B2800360E62EC0EF0C00E5AEC0EF0010E556E39
:101B3800120011501302F3CF15F0F4CF16F0115024
:101B48001402F350162612501302F350162615C02D
:101B580011F016C012F000D01200000E126E000E26
:101B6800116E12BE08D0A80E115C610E1258D8B0C2
:101B780005D001D003D0114A122AF3D71200136EF0
:101B8800000E126E3A0E136006D02F0E136403D0A7
:101B9800010E126E00D012C011F0113000D01200E8
:101BA800156E3FEC0EF015501524E4EC0CF01350B4
:101BB800E4EC0CF01450E4EC0CF036EC0EF01200EF
:101BC800480E166EAC0E136E020E146E1650D4EC40
:101BD8000DF0EE0E136E165001EC0EF01200000E12
:101BE800186E800E196EA00E1A6E24C01BF025C048
:101BF8001CF0000EC0EC08F01200146E3FEC0EF062
:101C080014501424E4EC0CF01350E4EC0CF036EC13
:101C18000EF0120094EC0EF098EC0EF071EC0EF051
:101C280087EC0EF094EC0EF01200126E9E96C9CF5F
:101C380011F012C0C9FF00D0C7A0FED71200000ED5
:101C4800126E190E116E3C0EFDEC0AF0700ED36E7A
:101C580012008294000E186E640E176EEDEC0BF0F5
:101C68008284120094EC0EF087EC0EF071EC0EF00A
:101C780098EC0EF0120098EC0EF071EC0EF087EC78
:101C88000EF094EC0EF0120087EC0EF071EC0EF0F2
:101C980094EC0EF098EC0EF01200F90ECB6E050ED7
:101CA800CA6E4A0EBB6E3C0EBA6E1200136E82925A
:101CB8008280135019EC0EF082821200136E829209
:101CC8008290135019EC0EF082821200116E00D02F
:101CD800ACA2FED711C0ADFF12009584060EE82E07
:101CE800FED700D01200000E536EF19CCD909E904E
:101CF800120071EC0EF098EC0EF0120071EC0EF080
:101D080094EC0EF012008396959600D000D0120045
:101D1800000E536ECD901200000EBA6E819612001E
:101D28008394959400D01200958600D000D01200BC
:0A1D3800000E536ECD901200FF0163
:10FD3A0000000000000000005F000000070007004C
:10FD4A00147F147F14242A7F2A122313086462362C
:10FD5A00495620500008070300001C2241000041B8
:10FD6A00221C002A1C7F1C2A08083E0808008070F2
:10FD7A003000080808080800006060002010080425
:10FD8A00023E5149453E00427F4000724949494678
:10FD9A002141494D331814127F1027454545393CF6
:10FDAA004A494931412111090736494949364649E3
:10FDBA0049291E0000140000004034000000081405
:10FDCA00224114141414140041221408020159097E
:10FDDA00063E415D594E7C1211127C7F49494936D3
:10FDEA003E414141227F4141413E7F494949417F4C
:10FDFA00090909013E414151737F0808087F004102
:10FE0A007F41002040413F017F081422417F40404A
:10FE1A0040407F021C027F7F0408107F3E4141411F
:10FE2A003E7F090909063E4151215E7F091929468B
:10FE3A00264949493203017F01033F4040403F1FA1
:10FE4A002040201F3F4038403F63140814630304D6
:10FE5A007804036159494D43007F41414102040836
:10FE6A001020004141417F04020102044040404009
:10FE7A0040000307080020545478407F284444383F
:10FE8A003844444428384444287F38545454180089
:10FE9A00087E090218A4A49C787F08040478004408
:10FEAA007D40002040403D007F1028440000417FF3
:10FEBA0040007C047804787C08040478384444447C
:10FECA0038FC1824241818242418FC7C0804040874
:10FEDA00485454542404043F44243C4040207C1C8D
:10FEEA002040201C3C4030403C44281028444C9080
:10FEFA0090907C4464544C440008364100000077DA
:10FF0A00000000413608000201020402010000005C
:10FF1A000A00000064000000E80300001027000047
:10FF2A00A086010040420F008096980000E1F50586
:10FF3A0000CA9A3B01000000100000000001000006
:10FF4A000010000000000100000010000000000185
:10FF5A00000000102054656D7065726174757265D9
:10FF6A00203D202564206465677265657343203DE2
:10FF7A002025642064656772656573460D0A00254D
:10FF8A003032783A253032783A25303278202530A6
:10FF9A0032782F253032782F25303278004E45437B
:10FFAA005F436F6465203D202530386C78202578C2
:10FFBA002C202564200D0A00454345333330314C4B
:10FFCA002046616C6C2032312D533200303132338D
:10FFDA003435363738396162636465660054696D51
:10FFEA0065204368616E6765200D0A004C41422016
:06FFFA0031302000000080
:020000040020DA
:08000000FFFFFFFFFFFFFFFF00
:020000040030CA
:0E000000FF08191EFF8281FF0FC00FE00F40A6
:00000001FF
